:020000020000FC
:0200000027C017
:100040003F065B4F666D7D077F67777C395E797110
:10005000E0E4F0E00FEF0DBF08E00EBF00E000931A
:10006000C1000FEF0AB900E00BB900E007B903E0E7
:1000700008B970E064916BB9319B0E944400309BD9
:100080000E9460000C943C000E947D00319908950C
:100090000E944D00319BFECF0895739574FD0C9422
:1000A00054000C945B0008957727E0E4F0E064913D
:1000B0006BB90C945300319664916BB90C94530056
:1000C0000E947D00309908950E946900309BFECF08
:1000D00008957A9577FD0C9470000C94780008953B
:1000E0007FE0E0E4F0E03F9664916BB90C946F0020
:0E00F000319764916BB90C946F0020E0089575
:00000001FF
