:020000020000FC
:100040003F065B4F666D7D077F67777C395E797110
:10005000E0E4F0E00FEF0DBF08E00EBF00E8009312
:10006000610004E00093610000E00093C1000FE133
:1000700004B900E005B90FEF0AB900E00BB900E0E0
:1000800007B903E008B980E040E070E064916BB923
:1000900005E005BD70300FB701FD0C94670006B593
:1000A00000301FB711FD0E946C008A300FB701FDB0
:1000B0000E94700047170FB701FD0E947A00319B24
:1000C0000E948600309B0E949D000C944A0040E0F4
:1000D00050E055B90C945F000EE906BD8395089574
:1000E0008827439544FD442705B104FB542F54F958
:1000F00055B90895442705B104FB542F54F955B957
:100100001C9A0895442750E155B90895739574FDDC
:100110000C9491000C9498000E948200319BFCCFBB
:1001200008957727E0E4F0E064916BB90C948C00BB
:10013000319664916BB90C948C007A9577FD0C9490
:10014000A8000C94B0000E948200309BFCCF089560
:100150007FE0E0E4F0E03F9664916BB90C94A3007B
:0A016000319764916BB90C94A30071
:00000001FF
